:100000000C94C7010C94E4010C94E4010C94E401F9
:100010000C94E4010C94E4010C94E4010C94E401CC
:100020000C9446070C94E4010C94E4010C94E40154
:100030000C94E4010C94E4010C94E4010C94E401AC
:100040000C94E4010C94E4010C94E4010C94E4019C
:100050000C94E40100407A10F35A00A0724E180983
:100060000010A5D4E80000E87648170000E40B541F
:10007000020000CA9A3B000000E1F50500008096EE
:100080009800000040420F000000A0860100000020
:10009000102700000000E8030000000064000000DA
:1000A00000000A00000000000100000000002C76A3
:1000B000D888DC674F0823DFC1DFAE59E1B1B796BE
:1000C000E5E3E453C63AE651997696E8E6C284261B
:1000D000EB898C9B62ED407C6FFCEFBC9C9F40F2F7
:1000E000BAA56FA5F490055A2AF75C936B6CF96773
:1000F0006DC11BFCE0E40D47FEF520E6B500D0ED38
:10010000902E0300943577050080841E080000209F
:100110004E0A000000C80C333333330F986E12833D
:100120001141EF8D2114893BE65516CFFEE6DB1811
:10013000D1844B381BF77C1D901DA4BBE4242032D6
:1001400084725E228100C9F124ECA1E53D27000004
:100150000508205F050505050505050505050505D7
:10016000050505050505050505050505050505053F
:10017000050505050505050505050505050505052F
:10018000050505050505050505050505050505051F
:10019000050505050505050505050505050505050F
:1001A00005050505050505050505050505050505FF
:1001B000050505000000000000005F0000000700CA
:1001C0000700147F147F14242A7F2A122313086443
:1001D0006236495522500005030000001C224100F0
:1001E0000041221C00082A1C2A0808083E080800B2
:1001F00050300000080808080800303000002010C7
:100200000804023E5149453E00427F400042615190
:1002100049462141454B311814127F102745454569
:10022000393C4A4949300171090503364949493683
:10023000064949291E0036360000005636000000E7
:100240000814224114141414144122140800020149
:10025000510906324979413E7E1111117E7F49498B
:1002600049363E414141227F4141221C7F49494953
:10027000417F090901013E414151327F0808087F51
:1002800000417F41002040413F017F081422417F0F
:10029000404040407F0204027F7F0408107F3E41BF
:1002A00041413E7F090909063E4151215E7F0919FE
:1002B0002946464949493101017F01013F404040FB
:1002C0003F1F2040201F7F2018207F6314081463E5
:1002D0000304780403615149454300007F41410212
:1002E0000408102041417F00000402010204404044
:1002F000404040000102040020545454787F484498
:1003000044383844444420384444487F3854545492
:1003100018087E090102081454543C7F080404782C
:1003200000447D40002040443D00007F10284400F0
:10033000417F40007C041804787C08040478384429
:100340004444387C14141408081414187C7C0804E1
:1003500004084854545420043F4440203C4040206A
:100360007C1C2040201C3C4030403C442810284449
:100370000C5050503C4464544C440008364100003A
:10038000007F000000413608000002010201112434
:100390001FBECFE5D8E0DEBFCDBF10E0A0E6B0E0E5
:1003A000E0E0FAE102C005900D92A637B107D9F757
:1003B00020E0A6E7B0E001C01D92A639B207E1F740
:1003C0000E9405060C94FE0C0C940000FF920F9303
:1003D0001F93CF93DF93F82EC62FD22F862F90E056
:1003E0008C01040F111D801791075CF44D2F6C2FA9
:1003F0008F2D0E94EF03CF5F8C2F90E08017910725
:10040000ACF3DF91CF911F910F91FF9008953F9230
:100410004F925F926F927F928F929F92AF92BF9214
:10042000CF92DF92EF92FF920F931F93CF93DF93C0
:10043000CDB7DEB72A970FB6F894DEBF0FBECDBF9B
:100440008A876987342E122F841318C0621758F4D4
:10045000402F69858A850E94EF0329852F5F2987B0
:100460001217B0F7DAC0402F69858A850E94EF0322
:100470008985815089878117B0F7CFC0622F70E0DE
:100480002985621B7109072E000C880B990B0E94AD
:10049000E30869837A838B839C832A85822F90E08B
:1004A000632D70E07C016E197F09072E000C880B0C
:1004B000990B0E94E3082B013C019B01AC0169816F
:1004C0007A818B819C810E9440084B015C012985C7
:1004D000622F70E080E090E00E94E1086D837E83EF
:1004E0008F839887B701FF0C880B990B0E94E30854
:1004F000A50194010E9493099B01AC016D817E814D
:100500008F8198850E94CE076B017C0169817A8179
:100510008B819C819F77A30192015F770E943B08AA
:100520001816ECF18A858315E8F42A85622F70E0AD
:1005300080E090E00E94E308A50194010E949309E5
:10054000A70196010E94CF070E94000A0E94B208EC
:10055000402F8A850E94EF038A858F5F8A8738162D
:1005600020F75BC02A85622F70E080E090E00E9457
:10057000E308A50194010E949309A70196010E9436
:10058000CF070E94000A0E94B208402F8A850E946D
:10059000EF038A8581508A87831520F73EC029851D
:1005A0002117F0F42985622F70E080E090E00E942E
:1005B000E308A70196010E94CE07A50194010E94BD
:1005C00040080E94000A0E94B208862F402F6985C9
:1005D0000E94EF0389858F5F8987181718F71DC060
:1005E0002985622F70E080E090E00E94E308A70177
:1005F00096010E94CE07A50194010E9440080E9426
:10060000000A0E94B208862F402F69850E94EF03DE
:10061000898581508987811718F72A960FB6F89433
:10062000DEBF0FBECDBFDF91CF911F910F91FF9025
:10063000EF90DF90CF90BF90AF909F908F907F9082
:100640006F905F904F903F900895833021F485B371
:10065000806685BB0895813019F4AE98AD9A0895EF
:10066000823019F4AD98AE9A089585B38F7985BB21
:1006700008958FEF8ABB8BBB1ABAAA9885B388619D
:1006800085BB0000CF9B06C0AC980000AC9A000070
:10069000CF99FACF85B3877E85BB8FEF8ABB08954C
:1006A0009FEF9ABB8BBBAC9A00C0AC98633071F4DF
:1006B00081E00E9425030E94390382E00E94250305
:1006C0000E94390383E00E94250302C00E9439037F
:1006D0001BBA0895CF93DF93D82FC62F862F0E9481
:1006E000250385B3837F85BB6C2F8D2F0E9450031C
:1006F000DF91CF910895CF93DF93C82FD62F8091AC
:1007000076008111C0958D2F0E942503AA9AAB987F
:100710006D2F8C2F0E945003DF91CF910895CF93BE
:100720000E9425030E9439038FEF8ABB8BBB1ABA44
:1007300085B38C6085BBAC9A00C08091760088231D
:1007400019F0C9B3C09501C0C9B3AC980E94390370
:100750008C2FCF91089584B38C6F84BB83E00E946B
:100760002503AF988BE49DE10197F1F700C00000ED
:10077000AF9A63E08FE30E946A0363E080EC0E941B
:100780006A0363E080E40E946A0363E088EB0E94EE
:100790006A0310928700109286000895CF93DF932A
:1007A000D0E063E08D2F886B0E946A0363E080E4F1
:1007B0000E946A03C0E463E080E00E947B03C150B2
:1007C000D1F7DF5FD83069F763E080E40E946A0305
:1007D00063E088EB0E946A03DF91CF910895FF9256
:1007E0000F931F93CF93DF93C82F162FF42E8823D8
:1007F0000CF442C0603408F03FC0803418F0C0549C
:10080000D2E001C0D1E06D2F812F86958695869527
:10081000886B0E946A03C0646D2F8C2F0E946A034C
:100820008D2F0E948F036D2F8C2F0E946A038D2FB6
:100830000E948F03082F6D2F8C2F0E946A0381E086
:10084000F8120CC0177081E090E09C0102C0220FEA
:10085000331F1A95E2F7802F822B0BC0177021E00F
:1008600030E002C0220F331F1A95E2F72095822F45
:1008700080236D2F0E947B03DF91CF911F910F91F9
:10088000FF9008959C01FC0134969491E62FF0E0CE
:10089000E91BF1093696E20FF31F84910895FC01DC
:1008A00034962491621770F024913196E49170E0AF
:1008B000F0E0E20FF11D319781E0E617F7071CF435
:1008C00080E0089580E00895CF92DF92EF92FF924A
:1008D0000F931F93CF93DF937C01D62FFC013396A8
:1008E000E491F0E031976F011AF427E0C20ED11CB9
:1008F000D594C794D594C794D594C794F7013496EA
:10090000C491CD17B0F400E010E0DD248FEFC81AD9
:10091000D80A6C2FC7010E944204282F2C9DC001C9
:100920002D9D900D1124080F191FCF5FCD1788F34F
:1009300002C000E010E0F7013596849190E0069641
:10094000800F911FDF91CF911F910F91FF90EF903A
:10095000DF90CF900895882314F08093870060344F
:1009600010F46093860008953F924F925F926F92C9
:100970007F928F929F92AF92BF92CF92DF92EF922F
:10098000FF920F931F93CF93DF937C01562E0E940B
:100990004F04813009F0E6C0C0918700652DC70182
:1009A0000E94420490E08C0F911D803891050CF05C
:1009B000D9C020918600670143E0C40ED11CF60126
:1009C000849190E0820F911D813491050CF0CAC092
:1009D000652DC7010E9464045C01F601849190E0DA
:1009E0000197893F9F4F0CF4A8C0612C312C412CFA
:1009F0006894882483F8912C01C03C2E8091860055
:100A0000869586958695840D63E0886B0E946A03BF
:100A100080918700803458F48091870061E0806481
:100A20000E946A0362E080E40E946A0307C080912A
:100A30008700805462E080640E946A03809187008E
:100A4000782E381A43C0F501EC0FF11DEE0DFF1D95
:100A50008491F6019491969596959695941178C007
:100A6000249190E02770A401421B510902C0959582
:100A700087954A95E2F76CC05FE3571520F061E077
:100A80000E947B0322C062E00E947B031EC0C8015B
:100A90000C2E02C0959587950A94E2F780FF09C055
:100AA00060918600660D6C0F41E0872D0E94EF0378
:100AB00008C060918600660D6C0F40E0872D0E9493
:100AC000EF032196C830D10511F77394C72DC30DDC
:100AD000D0918700652DC7010E944204272D30E088
:100AE00090E08D0F911D281739070CF4ACCF809141
:100AF0008600877059F42FE3271520F061E00E94EB
:100B00007B0304C062E080E00E947B034394F60113
:100B10008491F8E06F0E242D30E090E00197AC0155
:100B200012F4495F5F4F55954795559547955595F3
:100B30004795421753070CF060CF652DC7010E94FF
:100B4000420490918700890F8F5F809387000AC0CD
:100B500090918600977009F48FCFC0E0D0E0082F05
:100B600010E095CFDF91CF911F910F91FF90EF9003
:100B7000DF90CF90BF90AF909F908F907F906F90BD
:100B80005F904F903F9008950F931F93CF93DF9303
:100B9000EB016881662341F08C012196C8010E9417
:100BA000B40469916111FACFDF91CF911F910F9138
:100BB000089580E280B981B18C7F81B9089596B79C
:100BC000946A96BF96B79F7E96BF06B607FEFDCF86
:100BD000816083B986B7846886BF86B78F7C86BFFD
:100BE00006B607FEFDCF089584E886BF06B607FE69
:100BF000FDCF83B1089586B7846986BF86B78F7DA0
:100C000086BF06B604FCFDCF08950E94AB030E9488
:100C1000CE0360E080E00E94AB0404B603FE13C084
:100C200067E670E08EE491E00E94C4052FEF83ED4B
:100C300090E3215080409040E1F700C000000E9406
:100C4000CA070E94CE030E9487070E94940760E0B3
:100C500070E080E09FE30E94A1070E94D905BC9A42
:100C60000E94C3077894FFCFEF92FF920F931F93D8
:100C7000CF93DF93C62FE82EF12CB7010F2C000C79
:100C8000880B990B0E94E30820E030E040EA50E432
:100C90000E94930920E030E04FE753E40E944008AF
:100CA0006093800070938100809382009093830012
:100CB000D0E0BE010D2E000C880B990B0E94E308BA
:100CC00020E030E040EA50E40E94930920E030E068
:100CD0004FE753E40E94400860937C0070937D00CE
:100CE00080937E0090937F0021E040E462E08FE3F8
:100CF0000E94E601609180007091810080918200E5
:100D0000909183000FE810E022E043E00E94750A12
:100D100060917C0070917D0080917E0090917F00B9
:100D200008E810E022E043E00E94750A67E380E0F3
:100D30000E94AB046FE870E08EE491E00E94C4056D
:100D400063E770E08EE491E00E94C40567E382E40B
:100D50000E94AB04B8018EE491E00E94C40563E7F1
:100D600070E08EE491E00E94C40538E23E9DC0012F
:100D70003F9D900D1124EFEFF0E0BF010E944D0A5E
:100D80002CE2822F861B809378003C9FC0013D9F00
:100D9000900D1124BF010E944D0A261B209377005D
:100DA0002091780040917B006091650080917A00ED
:100DB00001E00E9407022091770040916600609157
:100DC0006400809179000E9407028091630020E016
:100DD00042E360E00E94E6018091620020E042E38D
:100DE00060E00E94E6018091780080936500809128
:100DF00077008093640080917B0080937A008091DB
:100E000066008093790080917B008F5F80937B00E8
:100E100080917B00815C80936600809163008F5F8E
:100E20008093630080916300815C80936200809175
:100E30007B008E3370F010927B0080917B00805C91
:100E40008093660010927A0080917A00805C809393
:100E50007900809163008F3338F0109263008091A5
:100E600063008F5B80936200DF91CF911F910F91A0
:100E7000FF90EF900895CF930E94DF050E94F40544
:100E8000C82F0E94FB058C2FCF9108951F920F92BF
:100E90000FB60F9211242F933F934F935F936F934D
:100EA0007F938F939F93AF93BF93EF93FF93809123
:100EB00061000E943B0780938500809160000E9442
:100EC0003B0780938400809185000E949207809167
:100ED00084000E949F07A8956091840080918500FE
:100EE0000E94340698B380E1892788BBFF91EF9177
:100EF000BF91AF919F918F917F916F915F914F9132
:100F00003F912F910F900FBE0F901F90189583B7B0
:100F1000886483BF83B7806383BF83B7816083BFE7
:100F2000BB9A08958CBF089585B5886485BD85B545
:100F3000806385BD85B5816085BD8F9A089583BD29
:100F400008952EB528602EBD2EB524602EBD29B77C
:100F5000286029BF1DBC1CBC20E034E244EF5AE4E9
:100F60000E94930920E030E040E85BE30E9493098F
:100F700020E030E040E85FE30E94CE070E94B20824
:100F80007BBD6ABD089581B5886081BD81B58760EC
:100F900081BD089584B7877F84BF08955058BB27CB
:100FA000AA270E94E6070C9459090E944B0938F0C1
:100FB0000E94520920F039F49F3F19F426F40C9452
:100FC00048090EF4E095E7FB0C944209E92F0E94D2
:100FD0006A0958F3BA17620773078407950720F068
:100FE00079F4A6F50C948C090EF4E0950B2EBA2F2B
:100FF000A02D0B01B90190010C01CA01A00111241F
:10100000FF27591B99F0593F50F4503E68F11A16CA
:10101000F040A22F232F342F4427585FF3CF46955B
:1010200037952795A795F0405395C9F77EF41F167D
:10103000BA0B620B730B840BBAF09150A1F0FF0F47
:10104000BB1F661F771F881FC2F70EC0BA0F621F33
:10105000731F841F48F4879577956795B795F79523
:101060009E3F08F0B0CF9395880F08F09927EE0FB8
:101070009795879508950E941E0908F481E00895C8
:101080000E9454080C9459090E94520958F00E9479
:101090004B0940F029F45F3F29F00C9442095111AB
:1010A0000C948D090C9448090E946A0968F39923ED
:1010B000B1F3552391F3951B550BBB27AA27621754
:1010C0007307840738F09F5F5F4F220F331F441F61
:1010D000AA1FA9F335D00E2E3AF0E0E832D0915095
:1010E0005040E695001CCAF72BD0FE2F29D0660F82
:1010F000771F881FBB1F261737074807AB07B0E8C5
:1011000009F0BB0B802DBF01FF2793585F4F3AF0CA
:101110009E3F510578F00C9442090C948D095F3F75
:10112000E4F3983ED4F3869577956795B795F79550
:101130009F5FC9F7880F911D9695879597F9089538
:10114000E1E0660F771F881FBB1F621773078407D4
:10115000BA0720F0621B730B840BBA0BEE1F88F7E3
:10116000E09508950E94720988F09F5798F0B92F72
:101170009927B751B0F0E1F0660F771F881F991FCC
:101180001AF0BA95C9F714C0B13091F00E948C09D9
:10119000B1E008950C948C09672F782F8827B85FE9
:1011A00039F0B93FCCF3869577956795B395D9F724
:1011B0003EF490958095709561957F4F8F4F9F4F2E
:1011C0000895E89409C097FB3EF49095809570953A
:1011D00061957F4F8F4F9F4F9923A9F0F92F96E983
:1011E000BB279395F695879577956795B795F111F8
:1011F000F8CFFAF4BB0F11F460FF1BC06F5F7F4F95
:101200008F4F9F4F16C0882311F096E911C07723A6
:1012100021F09EE8872F762F05C0662371F096E8AF
:10122000862F70E060E02AF09A95660F771F881F7E
:10123000DAF7880F9695879597F90895990F000822
:10124000550FAA0BE0E8FEEF16161706E807F90798
:10125000C0F012161306E407F50798F0621B730B33
:10126000840B950B39F40A2661F0232B242B252BB4
:1012700021F408950A2609F4A140A6958FEF811D57
:10128000811D089597F99F6780E870E060E00895F8
:101290009FEF80EC089500240A941616170618068E
:1012A0000906089500240A9412161306140605066A
:1012B0000895092E0394000C11F4882352F0BB0FFB
:1012C00040F4BF2B11F460FF04C06F5F7F4F8F4F5E
:1012D0009F4F089557FD9058440F551F59F05F3F99
:1012E00071F04795880F97FB991F61F09F3F79F048
:1012F00087950895121613061406551FF2CF4695CA
:10130000F1DF08C0161617061806991FF1CF86954B
:101310007105610508940895E894BB27662777272F
:10132000CB0197F908950E94A6090C9459090E94CF
:101330004B0938F00E94520920F0952311F00C94CB
:1013400042090C94480911240C948D090E946A09E1
:1013500070F3959FC1F3950F50E0551F629FF00108
:10136000729FBB27F00DB11D639FAA27F00DB11D21
:10137000AA1F649F6627B00DA11D661F829F2227AA
:10138000B00DA11D621F739FB00DA11D621F839F31
:10139000A00D611D221F749F3327A00D611D231F07
:1013A000849F600D211D822F762F6A2F11249F5755
:1013B00050409AF0F1F088234AF0EE0FFF1FBB1F58
:1013C000661F771F881F91505040A9F79E3F510517
:1013D00080F00C9442090C948D095F3FE4F3983E31
:1013E000D4F3869577956795B795F795E7959F5FC1
:1013F000C1F7FE2B880F911D9695879597F9089553
:101400000E947209E8F09E37E8F09639B8F49E38E9
:1014100048F4672F782F8827985FF9CF86957795BE
:10142000679593959539D0F3B62FB1706B0F711DF9
:10143000811D20F487957795679593950C94240AE0
:101440000C943F0A0C948D09882371F4772321F0C2
:101450009850872B762F07C0662311F499270DC06B
:101460009051862B70E060E02AF09A95660F771F06
:10147000881FDAF7880F9695879597F908959F3F0B
:1014800031F0915020F4879577956795B795880F3F
:10149000911D9695879597F9089597FB072E16F459
:1014A000009407D077FD09D00E94610A07FC05D09F
:1014B0003EF4909581959F4F0895709561957F4F6B
:1014C0000895AA1BBB1B51E107C0AA1FBB1FA6178B
:1014D000B70710F0A61BB70B881F991F5A95A9F7DD
:1014E00080959095BC01CD010895EF920F931F93C5
:1014F000CF93DF93E80147FD02C034E001C034E13F
:10150000042E000C550B57FF03C05195419551090E
:10151000E32E022F242FAE010E94950ACE01DF9107
:10152000CF911F910F91EF900895A9E0B0E0EBE902
:10153000FAE00C94CD0C6A01122FB02E2BE3201789
:1015400020F0FF24F394F00E02C02CE3F22E0F2DB6
:1015500027E0AE014F5F5F4F0E94EF0BBC01498156
:10156000842F8970813031F0E1FC06C0E0FE06C0B6
:1015700090E205C09DE203C09BE201C090E05E2DB9
:10158000507143FF3CC0911102C083E001C084E070
:10159000811718F4212F281B01C020E051110BC026
:1015A000F601822F30E2882319F031938150FBCF6E
:1015B000C20ED11C20E0992329F0D6019C93F6019C
:1015C00031966F01C6010396E2FE0AC03EE4D601E1
:1015D0003C9341E411964C93119712963C9306C0AC
:1015E0003EE6F601308341E641833283FC01322F2F
:1015F00040E2332309F442C041933150FACF42FF15
:1016000044C0911102C083E001C084E0811718F446
:10161000212F281B01C020E051110BC0F601822FA1
:1016200030E2882319F031938150FBCFC20ED11CD8
:1016300020E0992329F0D6019C93F60131966F01A1
:10164000C6010396E2FE0BC039E4D6013C933EE4AA
:1016500011963C93119736E412963C9307C039E6F5
:10166000F60130833EE6318336E63283FC01322FC9
:1016700040E2332319F041933150FBCFFC01E20FDC
:10168000F11D10828EEF9FEFA6C021E030E0911196
:1016900002C020E030E0161617061CF4FB0131965C
:1016A00002C0E1E0F0E02E0F3F1FBB2021F0EB2D48
:1016B000F0E0319602C0E0E0F0E02E0F3F1FE12F96
:1016C000F0E02E173F071CF4121B212F01C020E071
:1016D0008E2D887159F4F601822F30E2882319F09B
:1016E00031938150FBCFC20ED11C20E0992329F009
:1016F000D6019C93F60131966F0151110BC0F60192
:10170000822F90E3882319F091938150FBCFC20E72
:10171000D11C20E00F2D060F9A81342F307144FF29
:1017200003C0913309F40150101624F4093018F065
:1017300008E001C001E0AB0177FF02C040E050E0EB
:10174000FB01E41BF50BA1E0B0E0AC0FBD1FEA0FFD
:10175000FB1F8EE2A82E4B01801A91080B2D10E082
:101760001195019511094F3FBFEF5B0721F4D60199
:10177000AC9211966D01641775072CF084169506CE
:1017800014F4818101C080E3415051093196D601A2
:1017900011967D014017510724F0D6018C93670103
:1017A000E2CF6417750739F4963320F4953319F4B2
:1017B000311101C081E3F6018083F701822F90E2AD
:1017C000882319F091938150FBCFF701E20FF11DAF
:1017D000108280E090E02996ECE00C94E90C28302F
:1017E00008F027E03327DA01990F311D87FD91605A
:1017F00000966105710539F432602E5F3D9330E348
:101800002A95E1F708959F3F30F080387105610512
:1018100009F03C5F3C5F3D93913008F08068911D7A
:10182000DF93CF931F930F93FF92EF92192F987F1F
:101830009695E92F96959695E90FFF27E255FF4F6C
:1018400099273327EE24FF24A701E7010590089488
:10185000079428F4360FE71EF81E491F511D660F26
:10186000771F881F991F0694A1F70590079428F405
:10187000E70EF81E491F561FC11D770F881F991FBD
:10188000661F0694A1F70590079428F4F80E491FE7
:10189000561FC71FD11D880F991F661F771F0694FB
:1018A000A1F70590079420F4490F561FC71FD81FB2
:1018B000990F661F771F881F0694A9F784911095CA
:1018C000177041F0D695C79557954795F794E794CB
:1018D0001A95C1F7E4E5F0E06894159015913591FB
:1018E0006591959105907FE27395E118F10A430B9C
:1018F000560BC90BD009C0F7E10CF11E431F561F50
:10190000C91FD01D7EF4703311F48A95E6CFE89498
:10191000015030F0080F0AF40027021708F4202FB6
:101920002395022F7A3328F079E37D932A95E9F7FE
:1019300010C07D932A9589F60694979567953795FB
:1019400017951794E118F10A430B560BC90BD009F0
:1019500098F023957E9173957A3308F070E37C9329
:101960002013B8F77E9170617D9330F0839571E319
:101970007D9370E32A95E1F71124EF90FF900F918A
:101980001F91CF91DF91992787FD909508952F9210
:101990003F924F925F926F927F928F929F92AF92FF
:1019A000BF92CF92DF92EF92FF920F931F93CF934C
:1019B000DF93CDB7DEB7CA1BDB0B0FB6F894DEBFE3
:1019C0000FBECDBF09942A88398848885F846E8409
:1019D0007D848C849B84AA84B984C884DF80EE8053
:1019E000FD800C811B81AA81B981CE0FD11D0FB65C
:1019F000F894DEBF0FBECDBFED010895F894FFCF80
:101A0000082146062C2C41493243206661696C75D9
:061A100072650076000083
:00000001FF
