:100000000C942A000C943C000C943C000C943C0092
:100010000C943C000C943C000C943C000C943C0070
:100020000C943C000C943C000C943C000C943C0060
:100030000C945A000C943C000C943C000C943C0032
:100040000C944B000C943C000C943C000C943C0031
:100050000C943C0011241FBECFE5D8E0DEBFCDBF1D
:1000600020E0A0E6B0E001C01D92A136B207E1F7A2
:100070000E946F000C94A1000C9400003E9A389AE4
:100080003D9A379A86B1876086B9339A359A80B798
:10009000806A80BF08951F920F920FB60F921124AD
:1000A0008F9385B1809360008F910F900FBE0F905A
:1000B0001F9018951F920F920FB60F9211248F93D5
:1000C0009F93809160008FB992B380E4892782BBAF
:1000D0009F918F910F900FBE0F901F90189504B6AF
:1000E00003FC0E949D000E943E000E947F000E942F
:1000F0008600369A0E94960078948E9AFFCF87B336
:100100008F7487BBBE9A80EC8DB908958EB58860D8
:100110008EBD8EB584608EBD89B7886089BF1DBCD9
:100120001CBC88E09DE39BBD8ABD089581B58860B5
:1001300081BD81B5876081BD089584B7877F84BF05
:060140000895F894FFCFC2
:00000001FF
