:100000000C942A000C943C000C943C000C943C0092
:100010000C943C000C943C000C943C000C943C0070
:100020000C943C000C943C000C943C000C943C0060
:100030000C943C000C943C000C943C000C943C0050
:100040000C943C000C943C000C943C000C943C0040
:100050000C943C0011241FBECFE5D8E0DEBFCDBF1D
:1000600020E0A0E6B0E001C01D92A036B207E1F7A3
:100070000E944B000C94C6000C94000087B181666E
:1000800087B986B1876886B90895369A3699FECFC2
:1000900085B190E008950E943E0080E895E20E94BC
:1000A000780081B3806681BB2FE38DE093E021501F
:1000B00080409040E1F700C000000E944500C82F3A
:1000C0000E948100CC2314F0959AEECFC13860F3E2
:1000D0009598EACF9C0140E050E060E072E18AE749
:1000E00090E00E9485002150310930BD29B9089562
:1000F0002AB128612AB920B52E6820BD0E946A0065
:1001000008955D9BFECF8CB90895052E97FB1EF4D4
:1001100000940E949C0057FD07D00E94A40007FC99
:1001200003D04EF40C949C00509540953095219549
:100130003F4F4F4F5F4F0895909580957095619513
:100140007F4F8F4F9F4F0895A1E21A2EAA1BBB1B12
:10015000FD010DC0AA1FBB1FEE1FFF1FA217B30793
:10016000E407F50720F0A21BB30BE40BF50B661FA9
:10017000771F881F991F1A9469F76095709580956D
:1001800090959B01AC01BD01CF010895F894FFCF7C
:00000001FF
