:100000000C942A000C943C000C943C000C943C0092
:100010000C943C000C943C000C943C000C943C0070
:100020000C9476000C943C000C943C000C943C0026
:100030000C943C000C943C000C943C000C943C0050
:100040000C944D000C943C000C943C000C943C002F
:100050000C943C0011241FBECFE5D8E0DEBFCDBF1D
:1000600020E0A0E6B0E001C01D92A036B207E1F7A3
:100070000E9488000C947A020C9400003E9A389AF0
:100080003D9A379A86B1876086B9339A359A80B798
:10009000806A80BF0895369A08951F920F920FB616
:1000A0000F9211242F933F934F935F936F937F93FE
:1000B0008F939F93AF93BF93EF93FF9392B380E29D
:1000C000892782BB85B10E94DB00FF91EF91BF9130
:1000D000AF919F918F917F916F915F914F913F91E0
:1000E0002F910F900FBE0F901F9018951F920F9297
:1000F0000FB60F9211248F939F9392B380E48927B8
:1001000082BB9F918F910F900FBE0F901F901895FB
:100110000E943E0080E895E20E94D10060E070E01D
:1001200080E09FE30E949B0081B3806681BB0E94B8
:100130004B007894FFCF2EB528602EBD2EB52460DD
:100140002EBD29B7286029BF1DBC1CBC20E034E2AD
:1001500044EF5AE40E94CC0120E030E040E85BE349
:100160000E94CC0120E030E040E85FE30E94DF0025
:100170000E944C017BBD6ABD089582959295907F47
:100180009827807F98279C0140E050E060E072E172
:100190008AE790E00E9439022150310930BD29B927
:1001A0000895539A20B52E6820BD20B5206320BD48
:1001B0000E94BD0008955D9BFECF8CB908955058F4
:1001C000BB27AA270E94F7000C9492010E94840189
:1001D00038F00E948B0120F039F49F3F19F426F487
:1001E0000C9481010EF4E095E7FB0C947B01E92F60
:1001F0000E94A30158F3BA17620773078407950793
:1002000020F079F4A6F50C94C5010EF4E0950B2EC0
:10021000BA2FA02D0B01B90190010C01CA01A00158
:100220001124FF27591B99F0593F50F4503E68F1B3
:100230001A16F040A22F232F342F4427585FF3CFF4
:10024000469537952795A795F0405395C9F77EF4C5
:100250001F16BA0B620B730B840BBAF09150A1F00E
:10026000FF0FBB1F661F771F881FC2F70EC0BA0F94
:10027000621F731F841F48F4879577956795B7951C
:10028000F7959E3F08F0B0CF9395880F08F0992717
:10029000EE0F9795879508950E94AB0188F09F57C0
:1002A00098F0B92F9927B751B0F0E1F0660F771F9A
:1002B000881F991F1AF0BA95C9F714C0B13091F090
:1002C0000E94C501B1E008950C94C501672F782FF5
:1002D0008827B85F39F0B93FCCF386957795679555
:1002E000B395D9F73EF490958095709561957F4FC1
:1002F0008F4F9F4F089597F99F6780E870E060E007
:1003000008959FEF80EC089500240A9416161706AE
:1003100018060906089500240A94121613061406F6
:1003200005060895092E0394000C11F4882352F059
:10033000BB0F40F4BF2B11F460FF04C06F5F7F4F11
:100340008F4F9F4F089557FD9058440F551F59F0F8
:100350005F3F71F04795880F97FB991F61F09F3FB2
:1003600079F087950895121613061406551FF2CFDB
:100370004695F1DF08C0161617061806991FF1CF2B
:1003800086957105610508940895E894BB27662752
:100390007727CB0197F908950E94DF010C94920111
:1003A0000E94840138F00E948B0120F0952311F007
:1003B0000C947B010C94810111240C94C6010E94C1
:1003C000A30170F3959FC1F3950F50E0551F629FF5
:1003D000F001729FBB27F00DB11D639FAA27F00D9E
:1003E000B11DAA1F649F6627B00DA11D661F829FC5
:1003F0002227B00DA11D621F739FB00DA11D621FAA
:10040000839FA00D611D221F749F3327A00D611DC6
:10041000231F849F600D211D822F762F6A2F1124A8
:100420009F5750409AF0F1F088234AF0EE0FFF1FDB
:10043000BB1F661F771F881F91505040A9F79E3F32
:10044000510580F00C947B010C94C6015F3FE4F3EE
:10045000983ED4F3869577956795B795F795E79588
:100460009F5FC1F7FE2B880F911D9695879597F991
:100470000895052E97FB1EF400940E94500257FD2C
:1004800007D00E94580207FC03D04EF40C9450028F
:1004900050954095309521953F4F4F4F5F4F0895B0
:1004A00090958095709561957F4F8F4F9F4F0895E0
:1004B000A1E21A2EAA1BBB1BFD010DC0AA1FBB1F68
:1004C000EE1FFF1FA217B307E407F50720F0A21BDA
:1004D000B30BE40BF50B661F771F881F991F1A9447
:1004E00069F760957095809590959B01AC01BD0171
:0804F000CF010895F894FFCF3D
:00000001FF
