:100000000C942A000C946B000C9447000C9447004D
:100010000C9447000C9447000C9447000C94470044
:100020000C9447000C9447000C9447000C94470034
:100030000C9447000C9447000C9447000C94470024
:100040000C948B000C9447000C9447000C94B9005E
:100050000C94470011241FBECFE5D8E0DEBFCDBF12
:1000600010E0A0E6B0E0E4E3F3E002C005900D92FA
:10007000A036B107D9F720E0A0E6B0E001C01D929C
:10008000A236B207E1F70E9407010C9498010C9484
:1000900000003E9A389A3D9A379A86B1876086B9B1
:1000A000339A359A80B7806A80BF089590E290B9FC
:1000B00091B19C7F91B982B986B7816086BF86B7BE
:1000C000846C86BF86B78F7C86BF089583B986B758
:1000D000866886BF08951F920F920FB60F92112463
:1000E0008F93829B0AC081E08093610086B7846011
:1000F00086BF5398959A969808C01092610086B76B
:100100008B7F86BF539A969A95988F910F900FBECA
:100110000F901F9018951F920F920FB60F921124F7
:100120002F933F934F935F936F937F938F939F93FF
:10013000AF93BF93EF93FF9385B18093600080915D
:100140006100811105C0A895809160000E94550151
:10015000FF91EF91BF91AF919F918F917F916F919F
:100160005F914F913F912F910F900FBE0F901F9075
:1001700018951F920F920FB60F9211242F933F9351
:100180004F935F936F937F938F939F93AF93BF939F
:10019000EF93FF9381B1887F883B79F018F4883A18
:1001A00031F01BC0803C79F0883C91F016C0A895D6
:1001B000809160000E94660011C0A8958091600047
:1001C0000E9466000BC086B7806C86BFA89506C0EB
:1001D00086B7806C86BFA89501C0A895FF91EF9166
:1001E000BF91AF919F918F917F916F915F914F914F
:1001F0003F912F910F900FBE0F901F9018958A98E6
:100200008BB780648BBF85B7816085BF089504B6C6
:1002100003FC0E94370180E895E20E9449010E9498
:10022000490081E20E9456000E94FF000E942001C6
:1002300081B3806681BB369A0E9430017894FFCFEB
:100240008EB588608EBD8EB584608EBD89B788609E
:1002500089BF1DBC1CBC88E09DE39BBD8ABD089581
:1002600081B5886081BD81B5876081BD089584B7FF
:10027000877F84BF08959C0140E050E060E072E118
:100280008AE790E00E9457012150310930BD29B919
:1002900008952AB128612AB920B52E6820BD20B55D
:1002A000206320BD0E943B0108958CB90895052E5E
:1002B00097FB1EF400940E946E0157FD07D00E9428
:1002C000760107FC03D04EF40C946E0150954095D6
:1002D000309521953F4F4F4F5F4F089590958095F2
:1002E000709561957F4F8F4F9F4F0895A1E21A2E11
:1002F000AA1BBB1BFD010DC0AA1FBB1FEE1FFF1FCA
:10030000A217B307E407F50720F0A21BB30BE40B19
:10031000F50B661F771F881F991F1A9469F7609560
:100320007095809590959B01AC01BD01CF0108951A
:04033000F894FFCF6F
:00000001FF
