:100000000C942A000C943C000C943C000C943C0092
:100010000C943C000C943C000C943C000C943C0070
:100020000C943C000C943C000C943C000C943C0060
:100030000C943C000C943C000C943C000C943C0050
:100040000C9462000C943C000C943C000C947100E5
:100050000C943C0011241FBECFE5D8E0DEBFCDBF1D
:1000600020E0A0E6B0E001C01D92A136B207E1F7A2
:100070000E94BF000C945B020C9400003E9A389AD8
:100080003D9A379A86B1876086B9339A359A80B798
:10009000806A80BF0895369A089590E290B991B130
:1000A0009C7F91B982B986B7816086BF86B7846C20
:1000B00086BF86B78F7C86BF089583B986B786686A
:1000C00086BF08951F920F920FB60F9211248F933F
:1000D00085B1809360008F910F900FBE0F901F909D
:1000E00018951F920F920FB60F9211242F933F93E2
:1000F0004F935F936F937F938F939F93AF93BF9330
:10010000EF93FF9381B1887F883B99F018F4883A88
:1001100031F023C0803CB9F0883CD1F01EC092B3CE
:1001200080E2892782BBA895809160000E945D00D3
:1001300015C092B380E4892782BBA89580916000A6
:100140000E945D000BC086B7806C86BFA89506C074
:1001500086B7806C86BFA89501C0A895FF91EF91E6
:10016000BF91AF919F918F917F916F915F914F91CF
:100170003F912F910F900FBE0F901F90189504B6CE
:1001800003FC0E94FD000E943E0088E00E944D009A
:1001900060E070E080E09FE30E94D4000E944B008A
:1001A0000E94F6007894FFCF2EB528602EBD2EB5A4
:1001B00024602EBD29B7286029BF1DBC1CBC20E0CF
:1001C00034E244EF5AE40E94EE0120E030E040E8DF
:1001D0005BE30E94EE0120E030E040E85FE30E9434
:1001E00001010E946E017BBD6ABD089581B58860E2
:1001F00081BD81B5876081BD089584B7877F84BF45
:1002000008955058BB27AA270E9419010C94B401E5
:100210000E94A60138F00E94AD0120F039F49F3F02
:1002200019F426F40C94A3010EF4E095E7FB0C946A
:100230009D01E92F0E94C50158F3BA1762077307A1
:100240008407950720F079F4A6F50C94E7010EF4E5
:10025000E0950B2EBA2FA02D0B01B90190010C01D6
:10026000CA01A0011124FF27591B99F0593F50F4EE
:10027000503E68F11A16F040A22F232F342F442746
:10028000585FF3CF469537952795A795F04053953E
:10029000C9F77EF41F16BA0B620B730B840BBAF00E
:1002A0009150A1F0FF0FBB1F661F771F881FC2F779
:1002B0000EC0BA0F621F731F841F48F4879577958D
:1002C0006795B795F7959E3F08F0B0CF9395880F47
:1002D00008F09927EE0F9795879508950E94CD0114
:1002E00088F09F5798F0B92F9927B751B0F0E1F0F7
:1002F000660F771F881F991F1AF0BA95C9F714C0A7
:10030000B13091F00E94E701B1E008950C94E7014B
:10031000672F782F8827B85F39F0B93FCCF38695DF
:1003200077956795B395D9F73EF49095809570953C
:1003300061957F4F8F4F9F4F089597F99F6780E892
:1003400070E060E008959FEF80EC089500240A9427
:100350001616170618060906089500240A941216A0
:100360001306140605060895092E0394000C11F4D3
:10037000882352F0BB0F40F4BF2B11F460FF04C080
:100380006F5F7F4F8F4F9F4F089557FD9058440FD9
:10039000551F59F05F3F71F04795880F97FB991FE4
:1003A00061F09F3F79F087950895121613061406A1
:1003B000551FF2CF4695F1DF08C01616170618062E
:1003C000991FF1CF86957105610508940895E89409
:1003D000BB2766277727CB0197F908950E94010272
:1003E0000C94B4010E94A60138F00E94AD0120F0E7
:1003F000952311F00C949D010C94A30111240C94ED
:10040000E8010E94C50170F3959FC1F3950F50E07C
:10041000551F629FF001729FBB27F00DB11D639FB6
:10042000AA27F00DB11DAA1F649F6627B00DA11D5C
:10043000661F829F2227B00DA11D621F739FB00D02
:10044000A11D621F839FA00D611D221F749F332772
:10045000A00D611D231F849F600D211D822F762F0B
:100460006A2F11249F5750409AF0F1F088234AF0E8
:10047000EE0FFF1FBB1F661F771F881F9150504054
:10048000A9F79E3F510580F00C949D010C94E80162
:100490005F3FE4F3983ED4F3869577956795B795DB
:1004A000F795E7959F5FC1F7FE2B880F911D9695F5
:0A04B000879597F90895F894FFCF9F
:00000001FF
